:020000040800F2
:1000000088A500209D010008EF19000811190008BB
:10001000ED190008DD020008CB3C000800000000DC
:10002000000000000000000000000000FF190008B0
:100030003103000800000000FD190008011A000843
:10004000B7010008B7010008B7010008B7010008B0
:10005000B7010008B7010008B7010008B7010008A0
:10006000B7010008B7010008B7010008B701000890
:10007000B7010008B7010008B7010008B701000880
:10008000B7010008B7010008B7010008B701000870
:10009000B7010008B7010008B7010008B701000860
:1000A000B7010008B7010008B7010008B701000850
:1000B000B7010008B7010008B7010008B701000840
:1000C000B7010008B7010008B7010008B701000830
:1000D000B7010008B7010008591D0008B701000862
:1000E000B7010008B7010008B7010008B701000810
:1000F000B7010008B7010008B7010008B701000800
:10010000B7010008B7010008B7010008B7010008EF
:10011000B7010008B7010008B7010008B7010008DF
:10012000B7010008B7010008B7010008B7010008CF
:10013000B7010008B7010008B7010008B7010008BF
:10014000B7010008B7010008B7010008F11900085D
:10015000B7010008B7010008B7010008B70100089F
:10016000B7010008B7010008B7010008B70100088F
:10017000B7010008B7010008B7010008000000003F
:10018000B7010008B7010008DFF80CD000F094F8C0
:10019000004800471D51000888A5002006488047F8
:1001A00006480047FEE7FEE7FEE7FEE7FEE7FEE75C
:1001B000FEE7FEE7FEE7FEE7891A0008890100086E
:1001C0002DE9F05F0546002092469B46884606468C
:1001D000814640241BE0284641464746224600F01F
:1001E0005AF853465A46C01A914110D31146184640
:1001F000224600F041F82D1A67EB01084F462246CF
:100200000120002100F038F817EB00094E41201EB4
:10021000A4F10104DFDC484631462A464346BDE8E6
:10022000F09F40EA01039B0703D009E008C9121FB1
:1002300008C0042AFAD203E011F8013B00F8013BA0
:10024000521EF9D27047D2B201E000F8012B491ECC
:10025000FBD270470022F6E710B513460A46044663
:100260001946FFF7F0FF204610BD421C10F8011B95
:100270000029FBD1801A7047202A04DB203A00FABB
:1002800002F1002070479140C2F1200320FA03F3ED
:10029000194390407047202A04DB203A21FA02F0EB
:1002A0000021704721FA02F3D040C2F120029140B0
:1002B0000843194670470000064C074D06E0E06809
:1002C00040F0010394E8070098471034AC42F6D39D
:1002D000FFF75EFF0057000820570008FEE7000008
:1002E00010B500224FEA020100EB820303F58053B0
:1002F000521CC3F880110F2AF6D300224FF480530A
:100300008418521C84F81C119A42F9D30170417070
:10031000012300F580528370C2F8BC11037640249B
:100320008471417682F81C1182F81D31002010BDC5
:1003300070477047002200F001B8000030B50E4B46
:10034000054601205C7A002C14D1587A1C54587A46
:1003500003EB800045605D7A03F108002A54587A67
:10036000421C5A72303008703A2048702F20887032
:10037000CC70002030BD00007845002090F835108A
:10038000022903D08021416501207047052180F8B2
:1003900035100068016821F00101016000207047FC
:1003A00070B5044600F0F0F80546601C02D0044821
:1003B0000078044400F0E8F8401BA042FAD370BD76
:1003C0001C0000202DE9F84F00224FF00108032502
:1003D0004FF00F0E0B6808FA02F42340A3426ED1CF
:1003E0004E68012E05D0022E03D0112E01D0122E00
:1003F00012D186684FEA420C05FA0CF7BE43CF686B
:1004000007FA0CF7374387604668A6430C79C4F3B4
:100410000014944034434460C668570005FA07FC52
:100420008C6826EA0C06BC403443C4604C68022C3D
:1004300001D0122C13D1D40800EB8404A346D4F8C5
:10044000209054074FEAD46A0EFA0AF629EA060900
:100450000E6906FA0AF646EA0906CBF82060066835
:100460000C7926EA0C0604F00304BC403443046013
:100470004C68E40065D5364C266846F48046266014
:10048000246822F0030604F480440094314C344480
:10049000A446D4F808489607370F0EFA07F6B44377
:1004A0002D4EB04201D1002624E02C4EB04201D1A5
:1004B00001261FE02A4EB04202D102261AE040E097
:1004C000284EB04201D1032614E0274EB04201D19C
:1004D00004260FE0254EB04201D105260AE0244E45
:1004E000B04201D1062605E0224EB04201D10726D6
:1004F00000E00826BE402643CCF808681E4E34684B
:100500004F689C43FF0300D51C4334601A4C241DE4
:1005100026684F689E43BF0300D51E432660164ED3
:10052000083634684F689C43FF0200D51C43346092
:10053000114E0C3634684F689C43BF0200D51C43F3
:100540003460521C102AFFF445AFBDE8F88F00005C
:1005500044380240003001400000024000040240E4
:1005600000080240000C024000100240001402404B
:1005700000180240001C0240003C01400AB18161A9
:1005800070470904FBE700000148806870470000DD
:100590001C000020D0F8C00201F0DCBED0F8C00280
:1005A00001F0EFBE006803F0E1B8006803F0E2B8C4
:1005B00001EB810100EBC10090F85C00704701EB9A
:1005C000810100EBC100C06C704710B5044690F883
:1005D000B802012809D0012084F8B802206803F08D
:1005E000D4F8002084F8B80210BD022010BD2DE917
:1005F000FE430546DDE90B7095F8B842DDF828C0EA
:10060000012C1CD001EB81044FF0010905EBC4045F
:1006100085F8B892002684F83D6084F83830A4F854
:10062000400084F8391084F83F7002F07F0884F8A5
:100630003A805FEA026805D584F83B9004E0022026
:10064000BDE8FE8384F83B6084F83CC0CDF800C070
:10065000CDE90170286803F0F9F885F8B862EFE792
:1006600070472DE9F04101EB8104DDE907E700EB7C
:10067000C404DDF818C084F83B20022684F83F301B
:10068000BCF1000F0AD084F84260002553B1012B61
:100690002BD0022B0FD0032B13D10CE0032584F8B1
:1006A0004250F2E7BCF1010F0BD152B9D7B9012288
:1006B00084F8512003E0AAB194F85020AAB184F83C
:1006C0004260C4E911E784F85C50E56484F83910AD
:1006D00084F85D50027C04F138010068BDE8F04107
:1006E00003F030B994F85120E8E784F84250E8E785
:1006F0002DE9F04104460068064603F042F801285F
:100700006FD1206803F04DFA00286AD0206803F00A
:1007100048FA800203D521684FF400104861206830
:1007200003F03FFAC00203D521684FF480104861FE
:10073000206803F036FA400103D521684FF080604D
:100740004861206803F02DFA800702D52168022055
:100750004861206803F025FA800010D5D6F84004DF
:1007600020F02E00C6F840042046FFF717FF0121B5
:10077000206803F0FBF921684FF0005048612068C1
:1007800003F00FFAC00102D5204601F02DF82068D1
:1007900003F007FA000705D5204600F0C8F82168E5
:1007A00008204861206803F0FCF9800124D5206806
:1007B00003F0C4F8074600254FF0010815E000BF1C
:1007C00005F00F0108FA01F038420DD006EB451094
:1007D000D0F80005E9B20004204603D500F0CCFDB6
:1007E00002E01CE000F0DEFE6D1CA068A842E7D825
:1007F00021684FF000704861206803F0D2F9C043CF
:10080000C0060CD42068816921F010018161204666
:1008100001F046F82068816941F010018161BDE86E
:10082000F08170B58AB0040005D094F8B90225684B
:10083000002618B107E001200AB070BD84F8B86244
:10084000204600F027F8032084F8B902E86BC005C1
:1008500000D42661206802F033FF04F11001282241
:100860000D466846FFF7DDFC94E80F0002F0D2FE6B
:100870000121206803F0C0F9282229466846FFF7C5
:10088000D0FC94E80F0003F005F9012084F8B902C8
:100890000020D1E710B586B0044614216846FFF762
:1008A000D9FC2068B0F1A04F2FD11948002102686F
:1008B00042F001020260006800F0010005904FF470
:1008C000C05000900220CDE90101032003900A20CE
:1008D000049069460F48FFF775FD0D48001D01683B
:1008E00041F0800101600A481430016841F4804100
:1008F00001600068002200F480400590114643200A
:1009000000F0AAF8432000F099F806B010BD0000EE
:100910003038024000000240D0F8C00201F0D0BDE3
:10092000D0F8C00201F0D2BD006803F04CB9D0F895
:10093000C00201F07ABD10B5044690F8B802012853
:100940000DD0012084F8B802206802F0E7FE0121F2
:10095000206802F0CDFE002084F8B80210BD02200D
:1009600010BD10B5044690F8B802012809D0012046
:1009700084F8B802206803F057F9002084F8B80220
:1009800010BD022010BD00000248816802781144A9
:10099000816070471C0000200B4810B5016841F4CD
:1009A00000710160016841F480610160016841F4F7
:1009B00080710160032000F06FF8002000F006F85D
:1009C00000F024F8002010BD003C024070B50D4D31
:1009D00004464FF47A712878B1FBF0F00A490968AF
:1009E000B1FBF0F000F002FB48B9102C07D2002256
:1009F0002146501E00F030F800206C6070BD0120D0
:100A000070BD00001C000020280000200A4808B526
:100A1000016841F480410160006800F4804000906A
:100A20000548001F016841F080510160006800F036
:100A30008050009008BD000044380240002809DBC7
:100A400000F01F02012191404009800000F1E020E8
:100A5000C0F8001170470000F0B40E4B1B680C4644
:100A6000C3F30223C3F10705042D00D90425191D82
:100A7000072901D2002300E0DB1E012606FA05F15A
:100A8000491E214099409E40761E16403143F0BCDD
:100A900003F040B90CED00E0064900F007020868D9
:100AA0004FF6FF03184040EA0220034A1043086053
:100AB000704700000CED00E00000FA052DE9F0475A
:100AC0000E46050065D0DFF81481D8F80000F7B2B3
:100AD00000F00F00B04207D288F80070D8F800008C
:100AE00000F00F00B04254D128683D4C810712D568
:100AF000400703D5206840F4E050206028780007C4
:100B000003D5206840F4604020602068A96820F088
:100B1000F000084320602878C0072DD0304968686D
:100B20000839012812D0022813D0032811D00968EF
:100B3000890700292DDA216821F003010143216092
:100B4000FFF722FD814641F2883A0EE009688903E9
:100B5000EFE709688901ECE7FFF716FDA0EB090153
:100B6000514502D90320BDE8F0872068696800F08C
:100B70000C00B0EB810FEFD1D8F80010404601F027
:100B80000F01B14207D90770006800F00F00B042B2
:100B900001D00120E7E72878400705D52068E968FB
:100BA00020F4E050084320602878000706D520682C
:100BB000296920F4604040EAC100206000F038F864
:100BC0002168084AC1F30311515CC8400649086016
:100BD00006480068FFF7FAFE0020C4E7003C024028
:100BE0000838024048560008280000202000002055
:100BF0000448054900680968044AC1F38221515C30
:100C0000C8407047280000200838024058560008A5
:100C10000448054900680968044AC1F34231515C3F
:100C2000C840704728000020083802405856000885
:100C3000154810B5006810F00C02144813D041108C
:100C4000042A0FD0082A0ED10F4C241F22682368D3
:100C500002F03F025B0207D52068C0F38810A0FBBA
:100C6000010106E0084610BD2168C1F38811A1FB0F
:100C700000010023FFF7A4FA2168C1F30141491CD8
:100C80004900B0FBF1F010BD083802400024F40028
:100C90002DE9F84F040076D02078DFF838A3CE4D48
:100CA000C00749D0DAF800105046C1F3810101298C
:100CB00008D00068C0F3810002280AD1281D00680E
:100CC000400206D52868800336D560680028E2D047
:100CD00032E06068B0F5803F10D0B0F5A02F2868F2
:100CE00010D020F480302860286820F4802028600C
:100CF0006068A0B1FFF748FC06460CE0286840F4A5
:100D00008030F4E740F480202860F7E7FFF73CFCF0
:100D1000801B642873D828688003F7D50CE0FFF7A0
:100D200033FC064605E000BFFFF72EFC801B64285D
:100D3000F0D828688003F7D42078DFF8A0828007F5
:100D40004FF000093ED5DAF80010504611F00C0FB4
:100D500009D00068C0F3810002280BD19D48001F14
:100D60000068400206D42868800715D5E06801288D
:100D700009D111E0E068B8B10120C8F80000FFF720
:100D800003FC064605E020E1FFF7FEFB801B02287E
:100D9000C0D828688007F7D52868216920F0F800B6
:100DA00040EAC10028600DE0C8F80090FFF7ECFBB6
:100DB000064604E0FFF7E8FB801B02281FD82868DE
:100DC0008007F7D42078000722D5824E84486169D5
:100DD0006C3671B101210160FFF7D6FB074604E0D4
:100DE000FFF7D2FBC01B022809D830688007F7D56F
:100DF0000EE0C0F80090FFF7C7FB074605E082E071
:100E0000FFF7C2FBC01B02287DD830688007F7D4EB
:100E10002078400768D5DFF8BCB100270BF1380B0C
:100E2000DBF80000C0000BD4DBF8001041F080516B
:100E3000CBF80010DBF80000012700F08050009094
:100E4000684E3068C00510D4306840F4807030605F
:100E5000FFF79AFB009005E0FFF796FB0099401A18
:100E6000022850D83068C005F6D55A4EA0686836BA
:100E700001280FD00528306810D020F00100306024
:100E8000306820F004003060A068B8B1FFF77CFB48
:100E900000900FE0306840F00100F4E740F00400FB
:100EA0003060F7E7FFF770FB0099411A41F2883094
:100EB000814266D830688007F4D50EE0FFF764FB06
:100EC000009007E0FFF760FB0099411A41F288307B
:100ED000814256D830688007F4D42FB1DBF8001077
:100EE00021F08051CBF80010A069D0B3DAF80020CF
:100EF0005146C2F38102022A4AD00228484607D04E
:100F0000C8F8600000E03CE0FFF73EFB04463BE031
:100F10004746C8F86000FFF737FB064605E000BF0C
:100F2000FFF732FB801B02282BD828688001F7D4FA
:100F3000D4E907010843A16A2B4A490802EB0141A1
:100F4000626A41EA8211084394F82C1040EA016178
:100F50002048001F016001203866FFF715FB04469A
:100F600005E034E0FFF710FB001B022809D82868D1
:100F70008001F7D52BE000BFFFF706FB001B02281E
:100F800002D90320BDE8F88F28688001F4D41EE060
:100F90000128F7D00868E26900F48001914214D179
:100FA000226A00F03F0191420FD147F6C071626A98
:100FB0000140914209D1A26A00F44031914204D12A
:100FC000E16A00F07060884201D00120DAE7002079
:100FD000D8E70000083802400038024000004742CD
:100FE000800E4742007000400000FFFF10B5401E19
:100FF000B0F1807F01D3012010BD4FF0E02460618B
:101000000F21601702F086FE0020A06107202061FA
:10101000002010BD7047000070B5026804461068DB
:10102000D168536910F00F0F52D003F0010501F49D
:1010300090762E435FD0C20705D0CA0503D5E26B78
:1010400042F00102E263420705D5DA0703D0E26B02
:1010500042F00202E263820705D5DA0703D0E26BB1
:1010600042F00402E263020707D501F020022A439E
:1010700003D0E26B42F00802E263E26B002A33D055
:10108000800604D5880602D5204600F021FD2068A0
:101090004069E16BC0F38010090700D428B32046F3
:1010A00000F008FD2068416949061AD5416921F020
:1010B00040014161606BA0B11B490165606BFFF7A6
:1010C0005DF9002810D0606B016DBDE870400847E5
:1010D000830610D58B060ED52046BDE8704000F083
:1010E000F7BC2046FFF796FF70BD2046FFF792FF42
:1010F0000020E06370BD030606D50B0604D520462C
:10110000BDE8704000F0C4BD4006F3D54806F1D5F7
:10111000D168204621F04001D160202184F83910A7
:1011200000F029F970BD0000A51A000870B5040090
:1011300004D094F83900002510B106E0012070BDFC
:1011400084F83850204600F023F8242084F8390031
:101150002068C16821F40051C160204600F004FD00
:101160002068016921F4904101612068416921F002
:101170002A0141612068C16841F40051C160E56302
:10118000202084F8390084F83A00002070BD000067
:1011900010B586B0044614216846FFF75BF817497E
:1011A0002068884228D11648016841F40031016066
:1011B000006800F40030059011481038016841F0D3
:1011C000010101600068694600F0010005900C20F3
:1011D000009002200190012002900320039007203C
:1011E00004900848FFF7EEF8002211462620FFF78A
:1011F00033FC2620FFF722FC06B010BD004400405F
:10120000403802400000024090F83A30202B22D1B2
:10121000F9B1F2B190F83830012B1CD0816282858F
:10122000C2850021C163222280F83A2080F838105C
:101230000168CA6842F48072CA6001684A6942F073
:1012400001024A610068C16841F02001C1600020CC
:1012500070470120704702207047000070B51349A5
:101260000068096888421FD1114C01256078212847
:101270000DD02F2805D00F4A61685054491C616079
:101280000AE00C490CA002F021FDE57004E00949D8
:1012900009A002F01BFDA570BDE8704004490122C1
:1012A000491C0248FFF7B0BF70BD00008830002025
:1012B00000000020D8200020257300002DE9F8430D
:1012C000044690F839001F4616460D46202850D196
:1012D000B5B1AEB194F8380001284AD0012084F8A5
:1012E00038004FF00008C4F83C80212084F8390011
:1012F000FFF74AF9A6848146E68484F8388026E020
:101300000120BDE8F883E08C401EE084A0684B46D5
:10131000B0F5805F4FF000024FF08001204600974B
:1013200003D000F0E6FCE8B90DE000F0E2FCC8B93B
:1013300028882168C0F308004860206908B16D1C46
:1013400005E0AD1C03E0216815F8010B4860E08C56
:101350000028D8D14B46002240212046009700F0BB
:10136000C8FC08B10320CCE7202084F83900002015
:10137000C7E70220C5E770472DE9F05F0746006820
:101380000E4600EB4114D4F808054FF0040B420759
:1013900001EB86004FF0050A4FF0100807EBC0057F
:1013A00008D5C4F808B5D4F80C0540F00200C4F81C
:1013B0000C0530E0D4F80805800601D5202028E08F
:1013C000D4F808054FF0080900070FD5D4F80C052C
:1013D00040F00200C4F80C0585F85DA0C4F808854B
:1013E000C4F80895386802F0D0F914E0D4F808057C
:1013F000400510D5D4F80C0540F00200C4F80C05E7
:10140000386802F0C2F9C4F8088585F85D904FF499
:101410008060C4F80805D4F8080580050ED5D4F816
:101420000C0540F00200C4F80C05314604F5A16437
:10143000386802F0AAF94FF4007090E0D4F808057B
:101440004FF00001C0074FF0010237D0386930B1CA
:10145000A86CD4F81035C3F31203C01AE86485F8F9
:101460005D20A965C4F8082595F83F0020B1022841
:1014700002D003280FD01AE0D4F80C0540F0020087
:10148000C4F80C05314604F5A164386802F07DF912
:10149000C4F800800BE0D4F8000540F00050C4F818
:1014A000000585F85C2031463846FFF7D9F815F875
:1014B000500F80F001002870BDE8F09FD4F80805B7
:1014C000800735D5D4F80C0520F00200C4F80C05CF
:1014D00095F85D000223012808D0052809D00628C8
:1014E0000AD0082808D003281FD015E085F85C2012
:1014F00012E085F85CA00FE0A86D401CA8650328E9
:1015000013D9A96585F85CB0D4F8000520F08040B7
:1015100040F00040C4F80005C4F8083595F85C2098
:1015200031463846FFF79CF8C6E785F85C30EBE7B4
:10153000D4F80805000614D5D4F80C0540F00200D4
:10154000C4F80C05A86D3146401CA865062085F836
:101550005D0004F5A164386802F017F9802020606E
:10156000AAE7D4F80805C006A6D595F83F000328D9
:1015700003D020B1022802D011E0A96505E0A965D9
:10158000386960B9032085F85D00D4F80C0540F097
:101590000200C4F80C053146386802F0F6F8C4F8C9
:1015A000088589E72DE9F047026802EB4114D4F879
:1015B00008254FF00403520709D5C4F80835D4F8BC
:1015C0000C0540F00200C4F80C05BDE8F087D4F823
:1015D000082501EB810596064FF0000200EBC505DA
:1015E0004FF0020C15D52023C4F8083595F83D308E
:1015F000012BEAD185F83D2085F85CC0D4F80C2594
:1016000042F00202C4F80C250068BDE8F04702F081
:10161000BCB8D4F8086577064FF0010611D585F8F7
:101620005D3085F83D60AA65D4F80C2542F00202D1
:10163000C4F80C25006804F5A16402F0A6F8402067
:1016400010E0D4F80875BF050ED5D4F80C2542F08B
:101650000202C4F80C25006804F5A16402F095F8B4
:101660004FF400702060B0E7D4F80875FF070FD082
:10167000AA65D4F80C2542F00202C4F80C250068D3
:1016800004F5A16402F081F8266085F85D609CE7AE
:10169000D4F808754FF005095FEA07784FF008079E
:1016A0000DD5C4F80875D4F80C2542F00202C4F830
:1016B0000C25006802F069F885F85D9085E7D4F89C
:1016C00008854FF0100A5FEAC86818D5AA6503229A
:1016D00085F85D2095F83D2022B995F83C200AB99F
:1016E00085F83D60D4F80C2542F00202C4F80C25C0
:1016F000006804F5A16402F048F85046B2E7D4F857
:1017000008855FEA08680FD5D4F80C2542F002027C
:10171000C4F80C25006804F5A16402F036F8062030
:1017200085F85D0080209DE7D4F808855FEA485879
:1017300012D5D4F80C2542F00202C4F80C2500683A
:1017400004F5A16402F021F8C4F800A04FF4806011
:10175000206085F85D7038E7D4F80875BF0796D526
:10176000D4F80C7527F00207C4F80C7595F85D7075
:10177000012F0AD0032F17D0042F15D0052F16D014
:10178000062F17D0082F15D027E085F85C6095F854
:101790003F20022A01D0032A1FD195F8512082F060
:1017A000010285F8512018E085F85CC015E085F845
:1017B0005C9012E0AE6D761CAE65032E03D9AA656F
:1017C00085F85C3001E085F85CC0D4F8002522F093
:1017D000804242F00042C4F80025C4F808C595F8DC
:1017E0005C20FEF73DFFF0E67CB504680546D4F8C2
:1017F00040040190D4F8400420F02E00009001989D
:1018000080070DD50198C00706D0A06920F00051CF
:10181000A1612846FEF7BEFE009840F0020000904D
:101820000198000732D5009840F008000090019818
:1018300040071DD5A869022803D0E86801280CD00C
:101840000FE00198C0F341400228286803D001212D
:1018500002F08CF905E00221FAE74EF66020C4F8A8
:1018600004042846FFF75CF82846FEF793FE0DE0D7
:101870002846FFF751F8D4F8400420F02E00C4F8B1
:1018800040042868816941F0005181610198800617
:10189000009802D540F020000090C4F840047CBDC0
:1018A0002DE9F041024600680646016AC1F3434350
:1018B00001F00F07C1F30A14022B25D1002C23D00D
:1018C00007EB870102EBC105696C00291CD0224699
:1018D00002F06BF9686C20446864E86C2044E864AA
:1018E00006EB4710D0F81015084A11420CD0D0F87A
:1018F000001521F0804141F00041C0F8001515F8B5
:10190000500F80F001002870BDE8F0810000F81F42
:10191000FEE7000010B504490448FEF70BFD02493C
:10192000491E087010BD0000110000203456000848
:1019300070B586B014216846FEF78CFC164800246A
:10194000016841F080010160016801F080010591AA
:10195000016841F001010160016801F00101059198
:10196000016841F00401016000680C4E00F00400C1
:101970004FF4E0750590002229463046FEF7FEFD43
:1019800001200095CDE90104694630460394FEF735
:1019900019FD06B070BD000030380240000802405A
:1019A00010B501220B490C4800F0AFFC08B1FEF75E
:1019B000C0FC0A49084801F041FD08B1FEF7B9FC36
:1019C000054801F084FD002803D0BDE81040FEF773
:1019D000B0BC10BDE5340008C83000203400002041
:1019E000014801F056BC0000C8300020FEE77047F7
:1019F0000148FEF77DBE000094420020704770470A
:101A0000FEF7C2BF30B593B030216846FEF722FC26
:101A100014210CA8FEF71EFC19480025016841F0AE
:101A200080510160006800F08050119015480168F5
:101A300041F4804101600068022400F4804011906C
:101A400001200090000401908001CDE906400420AF
:101A50000890A820CDE9090407200B906846FFF7FD
:101A600017F90CA90F2081E831004FF4A0500F9016
:101A7000E002109005210CA8FFF720F813B030BD4C
:101A800040380240007000400548016841F4700190
:101A9000016003494FF00060803908607047000022
:101AA00088ED00E010B5806B0021C185C184FFF78F
:101AB000B1FA10BD0168CA6822F49072CA60016868
:101AC0004A6922F001024A61202180F83A107047E9
:101AD00010B590F83A10222901D0022010BD81687B
:101AE000B1F5805F11D00169002901681FD04968F4
:101AF00001F07F03816A4A1C82620B70C18D491E0E
:101B00000904090CC18518D02BE00269816A002AFA
:101B10000268526805D0D2B20A80816A491C81628B
:101B2000ECE7C2F308020A80816A891CF7E74A6879
:101B3000816A4B1C83620A70E0E70168CA6822F080
:101B40002002CA600168CA6822F48072CA60016813
:101B50004A6922F001024A61202180F83A10FFF719
:101B60007DFB002010BD00002DE9F0410446006817
:101B70000169E26821F44051114301612169A068C3
:101B8000E26908436169114308432168CA6849F260
:101B90000C639A430243CA6020684169A26921F438
:101BA000407111434161E069192764253226B0F57F
:101BB000004F354A354920684FF0000806D088426A
:101BC00001D0904236D1FFF723F835E0884201D0AA
:101BD000904202D1FFF71CF801E0FFF709F86168B5
:101BE0004A18A0FB070148EB0803FEF7E9FA014693
:101BF000B0FBF5F00201B1FBF5F06FF018035843AC
:101C000001EB800006EBC000B0FBF5F000F0F8003F
:101C100002EB4002B1FBF5F0584301EB800006EB0C
:101C2000C000B0FBF5F000F00700216810448860A8
:101C3000BDE8F081FEF7DCFF61688B0F8A00A0FB36
:101C40000701FEF7BDFA0146B0FBF5F06FF0180290
:101C5000504301EB800006EB0010B0FBF5F000F004
:101C6000F002B1FBF5F002EB0012B1FBF5F06FF002
:101C70001803584301EB800006EB0010B0FBF5F0B1
:101C800000F00F00D1E700000014014000100140F7
:101C900090F83910212901D0022070478168B1F5F0
:101CA000805F016A0BD04A1C0262026809785160A9
:101CB000C18C491E0904090CC1840ED017E00988A3
:101CC0000268C1F30801516001690029016A02D06C
:101CD000491C0162ECE7891CFBE70168CA6822F035
:101CE0008002CA600068C16841F04001C160002004
:101CF00070472DE9F041984617460E460446069D6A
:101D00001DE0681C1BD02DB1FEF73EFCA0EB0800C7
:101D1000A84214D92068C16821F4D071C16020683C
:101D2000416921F001014161202084F8390084F8E3
:101D30003A00002084F838000320BDE8F0812068D4
:101D4000006836EA000004D00020B842D9D0002054
:101D5000F3E70120F9E700000148FFF75DB9000053
:101D60008830002010B500224FF6FF7300EB82048C
:101D700004F58054B4F8804124040BD49A4207D06F
:101D800000EB820000F5805041F40041C0F8801162
:101D9000D0B210BD521CD2B20B2AE7D31A46F7E7D5
:101DA0007FB51C46012501AE0023009586E80E0094
:101DB00002232A46214600F0C7FB04B0002070BD74
:101DC0007FB51D4641F21D13089C1B5C03B1002426
:101DD0000123CDE90031CDE9022402230022294666
:101DE00000F0B2FB04B0002070BD10B500F0A7FAFF
:101DF000002010BD8278012A07D10222027401223C
:101E00004274002242828182C2820022114600F086
:101E10000FB87FB51C46012501AE0023009586E86A
:101E20000E002A46214600F08FFB04B0002070BD52
:101E300070B504460120A3780546012B0CD0022B77
:101E400009D1204600F00DF9002158B1032809D02E
:101E5000022800D1A57070BDA160A2812576022163
:101E6000A17070BDA570217670BD7FB51D4641F291
:101E70001D13089C1B5C03B100240123CDE9003134
:101E8000CDE9022400231A46294600F05DFB04B088
:101E9000002070BD1FB500231446CDE90031082293
:101EA000CDE902231A46214600F04EFB04B0002083
:101EB00010BDFEF775BA70B5044641F23415002026
:101EC000254400EB800404EBC00405EB4404E67BEE
:101ED0000A348E4201D0FF2909D1A679964201D059
:101EE000FF2A04D1E4799C4206D0FF2B04D0401C89
:101EF000C0B20228E5D3FF2070BD0B2909D200EB48
:101F0000810000F58050B0F88011C1F30E01C0F8D7
:101F100080110020704730B48578029C012D0FD1CC
:101F200041F0800101740621417403214282B1EB2A
:101F3000122F02D140F2094100E000218182C482C7
:101F4000224630BC1946FFF773BF0A8803781A444B
:101F50000A80017808447047F8B50E4600F11C0568
:101F6000009104462B464FF400720021FFF7D3FF87
:101F7000070006D141F2341032462946204401F0D0
:101F80001AF93846F8BD38B50D460091044600F5FB
:101F90008E734FF480720021FFF7BDFF01002ED138
:101FA00041F22210204494F81C21027094F81D2163
:101FB0004270B4F81E21428094F82021027194F8F6
:101FC0002121427194F82221827194F82321C27157
:101FD000082D14D9B4F824210281B4F826214281B5
:101FE000B4F82821828194F82A21827394F82B2155
:101FF000C27394F82C21027494F82D21427408467F
:1020000038BDF8B51C461646009341F4407200F501
:102010008E731D460021FFF77EFF002814D16978DA
:10202000032911D129788A1EA24200D81446002122
:10203000A2B2AD1C04E06B5C891C06F8013B89B2BE
:102040009142F8D300213170F8BD01004FF000003B
:1020500004D0012901D0022901D0022070470120BB
:1020600070472DE9F84F04460125007E0B27A8464E
:102070004FF009094FF0070A04F580564FF00D0B99
:102080000C2819D2DFE800F0B3060E27323E4B626F
:102090006D7E8C9D627904F110012046FFF7FAFEF7
:1020A00002204FE06179204600F0B9F9012804D000
:1020B000042874D0022872D099E0207CE18A00F0D4
:1020C000800029B1802801D103203BE0052039E0C0
:1020D000802814D030E0D6F8BC01E0812379A289B1
:1020E0002046A168FFF795FE04202BE021792046C9
:1020F00000F095F9012802D0052841D058E084F875
:10210000189074E0CDF800806379A2892046A16818
:10211000FFF7ABFED6F8BC01E081062012E0617942
:10212000204600F07CF9012806D0052807D00228B7
:10213000CCD0042808D05AE084F818A057E00C202E
:1021400020761DE0207652E027764FE000222379AA
:1021500011462046FFF75DFED6F8BC01E08108205D
:10216000F0E72179204600F05AF9012804D004282C
:1021700025D0052804D03AE084F818B0002536E0D0
:10218000032534E0CDF80080002263791146204613
:10219000FFF76BFED6F8BC01E0810A20D2E70EE023
:1021A0006179204600F03BF9012804D00228A6D02E
:1021B000042804D01BE0002584F818B017E0277627
:1021C00015E0607E401CC0B26076022807D8204629
:1021D00000F0AFF984F8188084F8028007E0D6F8A0
:1021E000C821062120469047002060760225284617
:1021F000BDE8F88F2DE9FE430446012640784FF0F4
:102200000008374604F58E7204F58055082879D207
:10221000DFE800F004232A505760646F082120464D
:10222000FFF7B1FE00286DD195F82901A071677004
:1022300095F81D110091CDE9018095F81C314746B4
:1022400021798022204605F58E7500F0AAFFA0793D
:1022500069780091CDE9017025E012212046FFF751
:1022600092FE30BB022033E00121204601F005F947
:10227000F8B90220FFF71DFE85F81C71032060707D
:1022800095F81D11A079CDE9001802903B462179FF
:102290008022204605F58E7500F083FFA0796978CD
:1022A0000091CDE901802B7861790022204600F071
:1022B00078FF27E009212046FFF74EFE10BB0420DF
:1022C00006E0B5F836112046FFF746FED0B90520E6
:1022D000607017E095F83011062502E095F831118D
:1022E000072521B1FF232046FFF78BFE50B965700B
:1022F00008E095F8321121B1FF232046FFF781FE57
:1023000000B900263046BDE8FE8370B50E460500D4
:1023100013D005F58054002084F8C021C4F878015A
:10232000C4F87C012846FDF7DBFF0EB1C4F8C86194
:10233000284600F08BF8002070BD022070BD10B55B
:1023400000F58050D0F8C401FEF73FF9BDE8104019
:10235000FFF77BBE10B5027800F5805122B191F8ED
:102360001F11012909D00AE0012281F81E21D1F8AC
:10237000C82122B10421904701E002210170002010
:1023800010BD10B5044600F0D4F821792046FFF7BF
:10239000B4FD61792046FFF7B0FD04F580500021BF
:1023A00080F81E11D0F8C82112B1052120469047AF
:1023B000204600F0B3F803202070002010BD10B5B7
:1023C000C820FDF7EDFF002010BD00F58050D0F8CB
:1023D000C401FEF7F4B810B500F580500124D0F820
:1023E000C401FEF7E2F820B1012805D0022803D18C
:1023F00001E0002400E00224204610BD00F58050DA
:1024000001EB8101D0F8C40100EBC10090F83B1052
:1024100011B190F85000704790F85100704700F5E6
:102420008050D0F8C401FEF7C3B800F58051D1F850
:10243000BC21521CC1F8BC2102780B2A05D1D1F86D
:102440007811002901D089690847704710B500F557
:102450008051044691F8C00101281CD10F48002288
:10246000C0F8C042C1F8C4014FF0A041016008218A
:1024700081600121C0E903120221C0E90612FEF7C2
:10248000D0F908B1FDF755FF0448FEF78BF8014677
:10249000204600F02CF8002010BD000094420020DF
:1024A000FEB508AF00F5805097E870008DE8700029
:1024B000D0F8C401FEF79BF8BDE8FE40FFF7C5BDAC
:1024C00000F58050002180F81F11704700F5805002
:1024D000012180F81F11704710B500F58050D0F829
:1024E000C401FEF721FABDE81040FFF7AEBD00F5CC
:1024F0008050C0F8BC11704700F5805001EB81019D
:10250000D0F8C40100EBC10090F83B1011B180F885
:10251000502001E080F851200020704710B500F5F0
:102520008050D0F8C401FEF706FABDE81040FFF76E
:102530008CBD10B500F58050D0F8C401FEF711FA3B
:10254000BDE81040FFF781BD2DE9FF410DF12808DE
:1025500000F5805098E8F0008DE8F000D0F8C40154
:10256000FEF77FF804B0BDE8F041FFF76EBD03460B
:1025700041F278110220C958C9692AB1012A05D14E
:1025800089791846FFF736BCC979FAE77047000029
:1025900000F580500649D0F87801C06941650549C9
:1025A0008165012100F8501F8170002070470000F4
:1025B00055534243504030202DE9F84F00F5805AE2
:1025C0000646DAF8780101273D46C4694FF00B0B47
:1025D0004FF0090994F850004FF007080C2847D233
:1025E000DFE800F0D1061127304A54747DA6AECA48
:1025F00084F86110022084F85000009563791F224E
:1026000004F154015BE061793046FFF708FF0128CF
:1026100002D002287ED041E0E06D00282BD094F853
:102620006000000601D503204DE005204BE00A20A4
:1026300049E0237962893046D4F88C10FFF7B0FB6B
:10264000042040E021793046FFF7E9FE01284CD113
:102650006289E06D90420CD9D4F88C10801A114434
:10266000C4F88C10E06568D023793046FFF798FBFA
:1026700089E00020E06560E00095637922893046BA
:10268000D4F88C10FFF79CFB06201CE061793046E3
:10269000FFF7C5FE012804D00228C6D00528C6D001
:1026A00071E02289E06D9042E3D9D4F88C10801A51
:1026B0001144C4F88C10E0653FD000956379304632
:1026C000FFF77EFB5FE084F850005CE023790D2289
:1026D00004F178013046FFF763FB0820F3E7217926
:1026E0003046FFF79CFE012802D005281DD04AE0A5
:1026F00004F8505F3046A570DAF87811CC6921797A
:10270000FFF763FE0D280CD12049A06F884208D145
:10271000A16D00E035E0E06F884202D194F88400BA
:1027200008B102272FE000272DE084F850902AE01E
:1027300000223046FFF71BFF38B984F8508022E0B2
:1027400001223046FFF713FF10B1042811D01AE020
:1027500061793046FFF752FEC0F10100C2B26179E3
:102760003046FFF7C9FE217900223046FFF7C4FE4C
:10277000DBE784F850B006E0304600F014F80700BC
:1027800001D184F850503846BDE8F88F5553425374
:10279000A1220274FE22427400224282828201221D
:1027A000C282FFF745BB21210174FF214174002142
:1027B00041828182C1820A46FFF73ABB70B541F27D
:1027C000781101250958CC69A17B21B1022902D0D9
:1027D00003292DD126E02146FFF7DAFF0021054627
:1027E000032801D01DB123E00025216004E020680A
:1027F000022801D9022001E02078401C206000203E
:1028000002230BE000EB800202EBC00204EB820229
:10281000401C82F8923082F8C110C0B22268824215
:10282000F0D805E00021FFF7E5FA08B9E07BA073D6
:10283000284670BD10B5144641F27812125800783F
:10284000D3690B2801D0022010BD01EB810000EB01
:10285000C10003EB8001342220469031FDF7E1FCFA
:10286000002010BD2DE9F04100F580550646D5F851
:1028700078010027C469617939B13046FFF7B5FAAC
:1028800061793046FFF739FB6771217939B13046FC
:10289000FFF7ABFA21793046FFF72FFB2771D5F808
:1028A0007801C06920B102F0DFFAD5F87801C7617C
:1028B0000020BDE8F081FEB500F580550646D5F84C
:1028C000780102245023017906223046FFF7F3FAFB
:1028D0000146FF287CD0304600F0C2FDE00102F046
:1028E000ABFCD5F878110446C86195F8200100EBDF
:1028F000800101EBC00006EB400000F5805090F82D
:102900004A0101060ED5E07195F8200100EB800127
:1029100001EBC00006EB400000F58050B0F84C0120
:1029200060810DE0A07195F8200100EB800101EBC2
:10293000C00006EB400000F58050B0F84C0120814B
:1029400095F8200100EB800101EBC00006EB400090
:1029500000F5805090F8520101060ED5E07195F80F
:10296000200100EB800101EBC00006EB400000F508
:102970008050B0F8540160810DE0A07195F82001FD
:1029800000EB800101EBC00006EB400000F5805039
:10299000B0F8540120810020A4F8F800A4F8FA004F
:1029A00020736073A073A1793046FFF7DBF9607183
:1029B000E1793046FFF7D6F920713046FFF7E8FDA0
:1029C000682104F19000FDF745FC2089022700E012
:1029D00023E095F81D110091CDE9017095F81C31A7
:1029E000A2796179304605F58E7500F0DAFB6089D1
:1029F00069780091CDE901702B78E2792179304630
:102A000000F0CFFB217900223046FFF775FD617998
:102A100000223046FFF770FD00242046FEBD2DE960
:102A2000F04700F580574FF0010AD7F87811CC69CC
:102A3000217B11B101292DD127E1B4F8F8102268CA
:102A400001254FF0000891427CD201EB810202EB9C
:102A5000C10104EB8101022681F89150B4F8F8100D
:102A60004FF0050901EB810202EBC10204EB820287
:102A700092F89030092B0DD2DFE803F0050C1E868A
:102A80000DAE0C0CFB00042082F89000D7F8BC01BE
:102A9000C4F8FC00FBE0C9B29F3200F089F940B9EC
:102AA000B4F8F80000EB800101EBC00004EB8000FB
:102AB000B3E002287DD096E0C9B200F0ADFA10B1C3
:102AC000022830D08FE0B4F8F80000EB800101EB71
:102AD000C00004EB800090F8921011B180F8C15052
:102AE00001E080F8C180B4F8F810032001EB810206
:102AF00002EBC10104EB810181F89000B4F8F810F9
:102B000001EB810202EBC10104EB810181F89180AC
:102B1000B4F8F81001EB810202EBC10104EB810172
:102B200081F89280B3E0B4F8F80000EB800101EB8B
:102B3000C00004EB800090F89210022903D080F8C6
:102B4000C15002E099E080F8C180B4F8F81001EBC0
:102B5000810202EBC10104EB810181F89090B4F88D
:102B6000F80000EB800101EBC00004EB800080F86E
:102B70009150B4F8F80000EB800101EBC00004EBC9
:102B8000800080F8926082E0C9B2943200F0BCF913
:102B900000288ED1B4F8F81001EB810000EBC100E1
:102BA00004EB800080F89050B4F8F81001EB81023B
:102BB00000E006E002EBC10104EB810181F89180A5
:102BC00030E0B4F8F81001EB810202EBC10104EB34
:102BD000810181F890905AE0C9B29C3200F0D2F99C
:102BE00020B1022823D004282DD050E0B4F8F800FA
:102BF00000EB800101EBC00004EB800090F89C101A
:102C0000062901D002290BD1D7F8BC11D4F8FC2039
:102C1000891A42F21072914202D280F8906036E036
:102C200080F8905034F8F80F401C20802FE0B4F862
:102C3000F810082001EB810202EBC10104EB8101D5
:102C400081F8900023E0B4F8F80000EB800101EB7C
:102C5000C00004EB800080F89050B4F8F80000EB5E
:102C6000800101EBC00004EB800080F891600EE071
:102C7000FFE7491CA4F8F81009E0A4F8F8802573D0
:102C8000D7F8C8210221904701E04FF0000A5046D2
:102C9000BDE8F0872DE9F84341F2781201EB81039A
:102CA000125803EBC1030125D269082702EB830404
:102CB0002E4694F89030052B21D000224FF00508C5
:102CC000062B02D0072B29D10BE0002300921A46D5
:102CD00000F0D9F80AE002280ED017E084F89070CE
:102CE0001BE0002300921A4600F0BDF90028F2D143
:102CF00084F89060002511E084F890800EE004F1E3
:102D00009C0200F03FF920B1022807D00428E5D04A
:102D100004E004F8906F0220607002252846BDE8A8
:102D2000F8832DE9F84F00F580540646D4F8780171
:102D30000A9F8946C56994F81E0160B130780B2856
:102D400009D101EB810101EBC90005EB800090F88E
:102D50009010012902D00220BDE8F88F06212973C6
:102D600080F89010A5F8FA9049463046009700F098
:102D70008AF8D4F8BC8140F271204FF0010A474331
:102D800009E0D4F8BC11A1EB0800B0EB071F0CD888
:102D900094F81E0148B149463046FFF77BFF0128F1
:102DA000EFD085F80CA00020D6E785F80CA0D2E77C
:102DB0002DE9F041154641F27812022612580027FB
:102DC0004FF00108D46994F85220012A02D0022A57
:102DD00056D126E024208022E06584F860200A2273
:102DE00084F86220C4F86370C4F86770A4F86B704C
:102DF000122284F86320490184F8641084F8657015
:102E000084F8667084F8670084F86870022084F89B
:102E1000508084F8520004F110000126C4F88C00A0
:102E20002EE0FFF7C9FB06002AD122212846FDF734
:102E300011FAD4F88C00007800F01F006870D4F804
:102E40008C00007840092870D4F88C004078000687
:102E500002D585F8028000E0AF7054F88C0F102284
:102E60008168C5F80310C068C5F80700216805F13E
:102E70000C001031FDF7D5F92068006AC5F81D0077
:102E80003046BDE8F0812DE9F0411F461546024667
:102E900041F2781302209B58069EDC6994F8523068
:102EA000012B06D0022B2DD1BDE8F0411046FFF7D3
:102EB00083BBB4F8980010217043E065802084F84B
:102EC00060000A2084F8620004F16300FDF7C2F993
:102ED000282084F86300280E84F86500280C84F804
:102EE0006600280A84F8670084F86850300A84F87D
:102EF0006A0084F86B60012004F8500F0220A07073
:102F00000120E763BDE8F08170B5164641F2781202
:102F100001251258D46994F85220012A02D0022ABD
:102F20002ED11AE00820E065802084F860000A2095
:102F300084F86200102104F16300FDF78BF925206D
:102F400084F86300012084F85000022084F85200C5
:102F500004F11000C4F88C0012E0FFF72DFB05000F
:102F60000ED154F88C0F4188427849BA007862F348
:102F70001F4141EA006030602068C08840BAB080DC
:102F8000284670BD70B515460E46024641F27811CE
:102F900002208958CC6994F85210012914D00229D2
:102FA00011D131461046FFF707FB00280BD154F82A
:102FB0008C1F897801F00F0129702168097B6970E5
:102FC0002168497BA97070BD0E258020E56584F8D5
:102FD00060000A2084F86200102104F16300FDF70C
:102FE00039F9032084F86300700184F8640000203C
:102FF00084F8650084F8660084F8675084F86800F7
:10300000012084F85000022084F8520004F11000DE
:10301000C4F88C00012070BD70B5024641F27813EF
:1030200002209B58DC6994F85230012B06D0022B09
:1030300018D1BDE870401046FFF7BEBA0025E5651F
:1030400084F860500A2084F86200102104F16300C3
:10305000FDF700F984F86350012004F8500F0220B6
:10306000A070012070BD2DE9F0411F4615460246B3
:1030700041F2781302209B58069EDC6994F8523086
:10308000012B06D0022B2DD1BDE8F0411046FFF7F1
:1030900093BAB4F8980010217043E065002084F8DA
:1030A00060000A2084F8620004F16300FDF7D2F8A2
:1030B0002A2084F86300280E84F86500280C84F820
:1030C0006600280A84F8670084F86850300A84F89B
:1030D0006A0084F86B60012004F8500F0220A07091
:1030E0000120E763BDE8F0810020704741F27812CB
:1030F00012580078D2690B2808D101EB810000EB4F
:10310000C10002EB800090F8910008B100207047E8
:10311000012070472DE9F84F00F580540646D4F899
:1031200078010A9F8946C56994F81E0160B130781C
:103130000B2809D101EB810101EBC90005EB8000EF
:1031400090F89010012902D00220BDE8F88F0721E5
:10315000297380F89010A5F8FA90494630460097F8
:10316000FFF781FFD4F8BC8140F271204FF0010AD3
:10317000474309E0D4F8BC11A1EB0800B0EB071FEE
:103180000CD894F81E0148B149463046FFF782FD3D
:103190000128EFD085F80CA00020D6E785F80CA018
:1031A000D2E7FEB508AF97E870008DE87000FFF732
:1031B00077F90020FEBD2DE9F84105460B782B700C
:1031C0004B786B704B886B800B792B714B796B71E3
:1031D0008B79AB71CB790846EB710027097A29729C
:1031E000092A54D90921ADF800104BE06946FEF7D1
:1031F000ACFE4178042943D107EB870101EBC701FD
:1032000005EB4108017888F80A10417888F80B101E
:10321000817888F80C10C17888F80D10017988F849
:103220000E10417988F80F10817988F81010C17953
:1032300008F10A0488F81110017A2172002615E0BD
:103240006946FEF782FE417805290FD108EBC601D9
:1032500002780A7542784A7582788A75C278CA758A
:1032600082880A838279761C8A76F6B22179B14205
:1032700004D96A88BDF800108A42E1D87F1CFFB2E9
:10328000022F04D26988BDF800209142AED8BDE873
:10329000F8812DE9FE43022204468DF8002004F552
:1032A0008055002095F81F1131B9237823B1237878
:1032B000032B01D003232370237800260D274FF022
:1032C00008080C2B13D2DFE803F0061317ABB64443
:1032D00094535A626FA495F81E01002807D001206C
:1032E0002070C820FEF7E5FD2046FFF7F5F8A2E0C4
:1032F000012900D122709EE06420FEF7DAFD20460D
:10330000FFF769F885F81D0105202070002120468F
:1033100005F58E75FEF726FD607180212046FEF7CB
:1033200021FD20710146A0796A780092CDE9016003
:103330002B7880222046FFF734FFA079697800912E
:10334000CDE901602B78617900222046FFF729FF43
:1033500071E02046FEF74EFF00286CD185F8206111
:1033600095F83301012801D007204EE040464CE09B
:10337000D5F8C821E2B3012120469047F6E795F839
:103380003911204600F087F890BB09203DE095F800
:103390003B014FF00A05800604D50121204600F0CC
:1033A00088F828BB257046E0D5F87C1101B3C5F834
:1033B000786195F8432104EB800101F58051D1F843
:1033C00074110B79934201D1C5F87811401C10F0AB
:1033D000FF00F0D0D5F87801C8B181682046884751
:1033E000A8B906202070D5F8C821032120469047AF
:1033F00021E0D5F8780150B10169204688478DF861
:1034000000009DF80000B0B90B20207013E0277079
:1034100011E0D5F8780170B14169204688470AE08B
:103420002046FCF75DFFD5F8780120B1C168204641
:103430008847C5F878610020BDE8FE8330B50022DA
:1034400021B100F58053D3F87C4114B1022210461B
:1034500030BD41F274140125C3F87C510151F6E7E7
:1034600000F58050002290F838318B4202D980F864
:10347000201100E00222104670478278012A06D10E
:10348000002202740523437441828282C282002298
:103490001146FEF7CDBC8278012A06D100220274C3
:1034A0000923437441828282C28200221146FEF7C0
:1034B000BFBC8278012A06D1002202740323437420
:1034C00041828282C28200221146FEF7B1BC10B551
:1034D0000446FFF723F801212046FEF770FF002085
:1034E00010BD000001290AD00548022906D0042990
:1034F00003D0052903D1032100E0012101707047A9
:10350000150000200020704730B58DB0154601240D
:1035100049B1012909D0022910D0032918D0042467
:103520000DB0204630BD0024FAE701466A460E4839
:10353000FFF780F90028F3D1019813E001466A46AD
:103540000948FFF777F90028EAD1BDF8080009E03B
:1035500001466A460448FFF76DF90028E0D1BDF83E
:103560000800400A2860DEE7C830002030B58FB080
:10357000054600930B46014601240C48FFF7D1FB9A
:1035800068B101AA29460948FFF754F99DF81100CE
:10359000042806D0282804D03A2803D101E00024CA
:1035A00000E003240FB0204630BD0000C8300020EA
:1035B00010B5014601240348FFF798FD00B100242F
:1035C000204610BDC830002030B58FB005460093AE
:1035D0000B46014601240E48FFF79CFD78B101AA75
:1035E00029460B48FFF726F99DF8110004280AD058
:1035F000272806D0282806D03A2805D103E0002441
:1036000002E0022400E003240FB0204630BD000099
:10361000C830002070B5044606990A9E049D0D9896
:10362000012916D0E06840F04000E060204600F03C
:103630002BF8A16B1EB321F48031A163012D07D1BA
:10364000A16841F00601A160A16841F02001A160DC
:1036500070BDA16B21F48031A163E168094A11407A
:10366000E160E16821F44011E160012803D1E068E4
:1036700040F48010E060204600F006F8DEE741F4F8
:103680008031DAE7BFFFBDFF01220C4902E0521C86
:103690008A420BD80369002BF9DA026942F0010271
:1036A0000261012204E0521C8A4201D903207047C2
:1036B0000369DB07F7D1002070470000400D0300CD
:1036C000816821F0010181600020704700EB41100A
:1036D000064AC0F81025D0F8001521F0804141F0CD
:1036E0000041C0F80015002070470000000008806D
:1036F00008B5D0F8402422F02E020092D20405D45E
:10370000012909D1009941F4805103E021B90099C0
:1037100021F48051C0F84014002008BD816841F0B8
:103720000101816000207047002110220261054ADA
:10373000491C914201D9032070470369DB06F7D485
:1037400000207047400D03000022202343EA81112E
:1037500001610549521C8A4201D90320704703695F
:103760009B06F7D400207047400D0300D0F80804F2
:1037700080B2704708B5D0F840040090C0F34140D3
:1037800008BD406900F00100704700EB4111D1F81D
:1037900000254FF47A73C2F381426AB1022A0BD03A
:1037A000D1F8002542F08042C1F80025D0F810047D
:1037B00010F47F0F2ED009E0D1F8002542F08042AE
:1037C000C1F80025C06A10F47F0F07D0D1F80005BA
:1037D00040F00040C1F8000500207047D1F8000516
:1037E00020F00040C1F80005D1F8000540F000408D
:1037F000C1F80005D1F8000520F40040C1F800052B
:10380000012002E0401C9842E6D8D1F80025002AA9
:10381000F8DBE1E7D1F8000520F00040C1F8000531
:10382000D1F8000540F00040C1F80005D1F80005CE
:1038300020F40040C1F80005012002E0401C98423D
:10384000CAD8D1F80025002AF8DBC5E72DE9F043F6
:103850000026DDE9078500EB4114771EDDF8249092
:10386000C4F80875CDB1012D32D0022D15D0032D2D
:1038700027D00126D0F8187401F00F0C012101FAAD
:103880000CF10F43C0F81874816941F00071816137
:1038900010062AD54FF4004028E040F29D47C4F8B6
:1038A0000C75170605D500BFD4F80C7547F4807762
:1038B00018E0C76BFF05DDD5D4F80C7547F060073D
:1038C00010E040F29D67C4F80C751706ECD4D1E700
:1038D00040F22527C4F80C751706CBD5D4F80C7523
:1038E00047F4C077C4F80C75C4E70020B8F1020FA4
:1038F00018D000214FF0FE5707EA83534FF4F047EA
:1039000007EAC22213434FF4402202EA85421343DE
:10391000C9F30A02134303430B43C4F80035032DD4
:1039200003D008E04FF40031E4E7D4F8000540F09C
:103930000050C4F800053046BDE8F083D0F8140408
:1039400080B27047F8B54C78C56B4FF48073ED05C5
:103950004FF0000715D50D799DB912B1012A07D096
:103960000FE04D79012D0CD12146FFF7AFFE8CE021
:1039700000EB4415D5F80C6526F06006C5F80C651B
:103980004F710E695EB10D892E44761EB6FBF5F6B9
:10399000B6B29E4204D91E462B020B6100E00126FE
:1039A000CB78CBB30B897343C1F810306FF060450F
:1039B000C3F3120305EAC6452B438D7A4FF0C04688
:1039C00006EA45752B4300EB44140546C4F8103550
:1039D00012B1CB68C4F81435D5F80834D4F80055C2
:1039E00043F3000325F00055C4F80055D4F8005502
:1039F0005B1C45EA4373C4F80035D4F80055244BEA
:103A00001D601D6825F080451D60CD78002D1D6866
:103A100005D045F4004504E0FFE70B69C6E725F44F
:103A200000451D601D6845F000451D601B68C4F819
:103A3000003552BBCA7842BB0A6932B3CB7933B185
:103A4000012B0FD0022B02D0032B17D10AE0D21C7E
:103A5000C36AC2F38F029BB293420FD2826942F0D3
:103A600020020AE0D21CD0F81034C2F38F029BB2BD
:103A7000934203D2826942F08062826100970A8A8F
:103A800093B24A78C96800F00EF90020F8BD000032
:103A9000180000202DE9F0410025DDF818801746B8
:103AA0000446C0F8005E806B40F40010A063A06B79
:103AB00020F40020A063A06B20F48020A063E06BC2
:103AC000C00501D5032B04D0D4F8000420F0040174
:103AD00003E0D4F8000440F004012046C4F80014C8
:103AE0001021FFF731FE2046FFF71EFE0020461E84
:103AF00007E000BF04EB4011C1F80865C1F80C55A0
:103B0000401C8742F6D801212046FFF7F1FDC8206E
:103B1000FCF746FCA5616661E06BC00506D54FF475
:103B2000007060620C48A0620C4804E08020606273
:103B30000B48A0620B48C4F80001B8F1000F03D194
:103B4000A06940F01000A061A06907490843A06186
:103B50000020BDE8F0810000000200010003E00049
:103B600080006000E0004000080020A3D0F800249E
:103B700022F00302C0F80024D0F8002401F003036F
:103B80001A43C0F80024012902D0022903D006E01C
:103B90004BF6803101E041F27071C0F8041400204E
:103BA00070474169806908407047D21C10B593087E
:103BB000002200F5805002E00468521C10C19A42B5
:103BC000FAD3084610BD38B50446D0F8400420F0BA
:103BD0002E00009040F48070C4F84004642004F586
:103BE0008864FCF7DDFB009820F4807020600A20D8
:103BF000FCF7D6FB002038BD10B5C26822F0C042E9
:103C0000C260012902D029B1012010BDC16841F074
:103C1000005102E0C16841F08041C1603220FCF7F0
:103C2000BFFB002010BD000030B5044680680025B1
:103C300020F00100A06010212046FFF785FD2046FE
:103C4000FFF772FD5FF0000004EB4011D1F8002592
:103C500022F0802242F08042C1F80025401C0F284B
:103C6000F2D900204FF47A7304EB4011D1F800250B
:103C700022F4004242F04042C1F800256D1C9D42F2
:103C800003D8D1F80025002AF8DB401C0F28EBD917
:103C90004FF0FF30C4F814046061A06840F00100E8
:103CA000A060002030BD10B5029C64B9DB1C9C08EC
:103CB00000EB0230002300F5805002E004C90260EE
:103CC0005B1CA342FAD3002010BDFEE70FB4054BE6
:103CD00010B503A9044A029800F03BF810BC5DF847
:103CE00014FB0000514E0008540000200FB4084B94
:103CF00010B504A902AA039800F02BF8044602A903
:103D0000002000F091F8204610BC5DF814FB000084
:103D1000293E00080907090E002804DB00F1E02015
:103D200080F80014704700F00F0000F1E02080F8E8
:103D3000141D704702E008C8121F08C1002AFAD1FA
:103D400070477047002001E001C1121F002AFBD11B
:103D500070472DE9F84F9946924688460546002758
:103D600006E025280AD051464A4690476D1C7F1C24
:103D700028780028F5D13846BDE8F88F002315F8DB
:103D8000011F18462E2915D115F8011F04232A29D1
:103D90000DD06FF02F022978A1F13004092C09D839
:103DA00000EB800002EB400008446D1CF3E758F87C
:103DB000040B6D1C2A78002ADDD0632A07D0732AF1
:103DC0000FD0104651464A4690477F1C2AE018F80B
:103DD000042B8DF8002000218DF801106E46012182
:103DE00003E058F8046B4FF0FF315A074FF000041E
:103DF00001D409E0641C84420BDA8C42FADB325DA8
:103E0000002AF7D105E0641C8C42FCDB305D002801
:103E1000F9D1274404E016F8010B51464A46904771
:103E2000641EF8D26D1CA3E70A68531C0B60107067
:103E30007047000010B504460020E070401EE062AC
:103E4000204601F040FA08B1042010BD04F22E20F3
:103E500001F05EF9A0F52A41553901D0032010BDCB
:103E600094F83000E92805D0EB2814D194F83200FA
:103E7000902810D104F1660001F03FF90749B1EB39
:103E8000002F06D004F1820001F037F9044988427E
:103E900001D1002010BD022010BD00000046415499
:103EA00046415433F0B50022144D134605EB02147D
:103EB00026685EB10768BE4209D166688768BE425F
:103EC00005D1A4684669B44204D000E00123521C25
:103ED000022AEBD3022A01D069B904E04BB90229C6
:103EE00007D01220F0BD05EB02108089B0F5807F6D
:103EF00001D00020F0BD1020F0BD0000584500208A
:103F000030B50021054B0C4603EB011215688542C4
:103F100000D11460491C0229F6D330BD5845002059
:103F20000268090BC06A5289B1FBF2F1001D04C896
:103F30001AB1914203D3891AF8E70020704700684C
:103F4000084470474269891E921E8A4201D80020A7
:103F50007047826A408901FB002070472DE9F041DB
:103F600005680F00804606D000F0C4FF022809D281
:103F70000120BDE8F081EE6816B16869B04207D84B
:103F8000012605E0411CF4D069698142F1D83E4622
:103F900034466869641CA04202D80224022E0AD367
:103FA0002146404600F0A6FF38B10128E1D0411C6F
:103FB000DFD0B442EDD10020DBE74FF0FF363246D0
:103FC0002146284601F098F930B957B122463946C2
:103FD000284601F091F920B101280FD00124204694
:103FE000C7E7EC60D5E90401891E884201D8401E6C
:103FF0002861287940F001002871F0E73446EEE7A7
:104000002DE9F0410E4624300D6804460B22202194
:1040100001F052F90020014608272A5C401C202AA2
:1040200012D92F2A0BD05C2A09D02E2A01D0B942EE
:1040300014D30B2F22D02E2A20D10CE0401C2B5C55
:104040002F2BFBD05C2BF9D028443060B1B1207805
:10405000E5281FD020E008210B27DEE7802A03D3C4
:10406000114B1A4412F8802C10A300E05B1C93F84B
:1040700000C0BCF1000F04D09445F7D10620BDE884
:10408000F081A2F16103192B01D8203AD2B2625417
:10409000491CC2E705202070202A01D8042000E036
:1040A0000020E0720020EAE760560008222A2B2C4C
:1040B0003A3B3C3D3E3F5B5D7C7F0000401E02285A
:1040C00012D20A4901EB00118889B0F5807F05D032
:1040D00008B1401E80B2888110B103E00020FAE7E9
:1040E00000200860002070470220704758450020DB
:1040F0002DE9F04104460021056800F008F9002888
:1041000026D12846E16901F0DEF802001FD1206ABD
:10411000017899B1C17A01F03F01A171C17A090713
:104120000FD404F124010B2610F8013B11F8017B98
:10413000DB1B761E04D0002BF6D002E0042206E042
:104140002BB10021204600F005F80200D9D010461E
:10415000BDE8F0812DE9F047054647690468C0696C
:104160008946203710B1B7F5001F02D30420BDE8FF
:10417000F087390560D1401CE861A9694FF000085B
:1041800029B16089401E10EA173F05D054E020890C
:10419000B0EB571F1DD94FE0284600F0ABFE064696
:1041A00001281BD9701C33D06069B0423ED8B9F1E8
:1041B000000F0ED02846A969FFF7D0FE06000BD0ED
:1041C000012E0BD0701C23D0204601F0EFF9F8B976
:1041D00006E0C5F81C80C9E70720C8E70220C6E74B
:1041E0004FF48052002104F1300001F065F84FF0E7
:1041F000000831462046FFF7A5FE4FF00109E062B6
:104200000DE000BF84F80390204601F0CFF908B11B
:104210000120ACE7E06A08F10108401CE062618916
:104220004145EFD8E16AA1EB0800E0623146204643
:10423000AE61FFF787FEE861C7F30B002044303022
:104240006F612862002092E770B504460E46042094
:10425000256821E0284601F036F810BB226A117863
:10426000B1B1D27AE52902F03F02A2710AD02E291B
:1042700008D00F2A06D022F0200108290AD00021F8
:10428000B14210D000212046FFF764FF20B108E0C2
:10429000042006E00121F3E7E1690029DAD10028D2
:1042A00001D00021E16170BD70B5044600210668AF
:1042B00000F02DF80DE03046E16901F004F850B946
:1042C000206A0078E52809D040B101212046FFF797
:1042D00041FF0028EFD0042807D007E03046E1690D
:1042E00000F0F1FF050003D00FE0072005460CE0C9
:1042F00020220021206A00F0DFFF0B2204F12401BC
:10430000206A00F0CFFF0120F070284670BD2DE933
:10431000F04107680E460546B1F5001F36D2F0069B
:1043200034D16E61AC6824B93878032805D37C6A2F
:104330001CB178894FEA003812E03889B0EB561F7B
:1043400024D9786A12E0284600F0D4FD0446401CC7
:104350001AD0022C1AD37869A04217D9A6EB080606
:1043600046452146EFD23846FFF7ECFDC5E9064049
:1043700060B100EB1630E861C6F30B003844303012
:1043800028620020BDE8F0810120FBE70220F9E768
:10439000084910B50B5C002253B901220A540A18CF
:1043A00001EB8000127A4068016810468847024697
:1043B000104610BD7845002030B4054C231804EB9E
:1043C00080001B7A406804691846A44630BC6047E8
:1043D0007845002030B4054D2C1805EB8000247A78
:1043E000406885682046AC4630BC60477845002070
:1043F000044A111802EB8000097A406842680846B6
:10440000104700007845002030B4054D2C1805EB0E
:104410008000247A4068C5682046AC4630BC6047BE
:104420007845002038B5044600F066FB00280CD122
:104430006946204601F0E3F8002806D12069FFF71D
:104440003DFE002801D10021216038BD38B5044669
:10445000694601F0D4F8002808D1216921B1084645
:10446000FFF72CFE002801D10021216038BD2DE985
:10447000FE4F0D460446694601F0C1F8070064D1BD
:10448000677D002FFBD1E06A4FF0020A4FF0010870
:1044900004F1300B00286AD0691C29D0E068A842DA
:1044A00000D20546A561002D4FD02046691EFFF7BA
:1044B00037FD0146E0610098FFF744FD002875D004
:1044C00000996D1E4A89521E02EA15321518208B7A
:1044D0000005E9D0226AAA42E6D0207D00063BD53D
:1044E000487801235946FFF78FFF00286ED12FE04F
:1044F00002C80191A16883460225F1B10026AD1CD6
:10450000029189462046761C00F0F4FC0146012801
:104510004CD9481C5AD009F101008142F1D00198D0
:10452000854206D8CBF800600BF10400029A04C063
:104530008346009840698842E0D8E06A05600198A7
:10454000854203D80021CBF8001097E0112795E0B1
:10455000207D00F07F002075009801232A464078D6
:104560005946FFF737FF002830D1256286E0E06822
:10457000A84203D2217D890700D405464FF00009E7
:10458000A069C4F8189005B3009949890E0370B169
:10459000691EB1FBF6F2401EB0FBF6F18A4206D36B
:1045A000711E8843A0612D1AE1690DE04FE0A168FA
:1045B00049B900212046FFF7D1FC0146012846D029
:1045C000481C55D0A160E161D9B927E050E0A0694D
:1045D000AD1B3044A061207D8007204605D5FFF744
:1045E000BDFC010004D100250DE000F083FC014674
:1045F000481C3DD001292AD900984069884226D913
:10460000E161B542E3D8A0692844A061280505D03E
:104610000098FFF797FCD0B100EB1539E168A0696D
:10462000884204D9E060217D41F0400121750005F8
:1046300024D0226A4A4521D0207D000610D500985A
:10464000012359464078FFF7DFFE88B904E084F87B
:1046500015A00220BDE8FE8F207D00F07F002075B0
:10466000009801234A4640785946FFF7B3FE18B137
:1046700084F815800120EDE7C4F820903846E9E77A
:104680002DE9F74181B0904602980090684600F00D
:10469000C2FC040003D50B2004B0BDE8F0810D4E30
:1046A000002756F824501DB12846FFF729FC2F702B
:1046B0000198002800D0077046F8240002D0B8F115
:1046C000010F01D00020E7E7002201A902A800F0B5
:1046D0005BFAE1E7300000202DE9F74394B00500D4
:1046E0000BD002F03F063246694615A800F04CFA9E
:1046F00004004FF0000804D0ECE0092017B0BDE83A
:10470000F0830098049004A8159900F067FB04005A
:104710000ED19DF83F00000601D5062408E0700880
:1047200001D0012100E0002104A8FFF7BBFB0446F3
:1047300016F01C0F5DD04FF00109C4B1042C10D14C
:104740000020674902E0401C022804D201EB00125D
:104750001268002AF7D1022807D004A8FFF7A4FDA9
:10476000044646F008065CB1B4E01224B2E09DF8BD
:10477000160010F0110F47D1700701D50824A9E0E9
:10478000300747D500F014FC07460C9839460E3028
:1047900000F0BCFE0C983946163000F0B7FE0C98BD
:1047A0002021C1720C99009800F094FC0746002269
:1047B0000C99009800F096FE0C9800211C3000F037
:1047C000A5FE009981F8039017B3D1F82C90002230
:1047D000394604A800F005FE04007BD14946009844
:1047E00000F071FD04000098A7F10107C7600DD02B
:1047F00070E0ECBB9DF81600C10601D5042469E009
:10480000B10703D5C00701D0072463E0300701D505
:1048100046F040060098C06A68620C98A86270086A
:1048200001D0012100E0002104A800F013FC286160
:10483000B8B30C99009800F04DFCA8600C981C309F
:1048400000F05BFCC5F82C80E860009929600099B5
:1048500005F130004FF48052C988A9802E7585F883
:104860001580C5F8208000218146C5F8188000E039
:1048700030E000F021FDB0062ED5EE6866B3AE61E3
:104880000098A968408907030FE0284600F032FB32
:104890000146012800D80224481C03D0F61B24B18D
:1048A00005E01BE00124F61B01E0BE42EDD8E96102
:1048B00084B9300510D00098FFF744FB70B100EBCD
:1048C00016322A620098012349464078FFF782FD9C
:1048D00010B10124C5F8008020460FE70224F9E753
:1048E0005845002073B582B0050009D00022694602
:1048F00003A800F049F904004FF0000603D02FE0B0
:10490000092004B070BD009929602846039900F081
:1049100065FA040014D195F82F00000607D4A87991
:10492000C0061CD5296A009800F0D4FBA860009846
:10493000C188A98028460021FFF7E9FC040002D0C5
:10494000042C0CD00CE0A86838B10021284600F0F7
:1049500081FB286128B9122402E02E6101E00524C0
:104960002E602046CDE72DE9FE4F884600211960D4
:1049700099461546044602A900F041FE002812D1CE
:10498000607D00280FD1207DC0070BD0E168A069B1
:104990000127081A4FF0020A04F1300B854200D9B2
:1049A000054684E00720BDE8FE8FA169080566D1B1
:1049B00002984089401E10EA113611D129B1E06AEF
:1049C00028B12046FFF7ACFA05E0A06803E02046D6
:1049D000E16900F08FFA02281BD3411C4AD0E06144
:1049E000E1690298FFF7AEFA98B130440190280BC4
:1049F000009025D0029932184889824201D9801B43
:104A00000090DDE9003248784146FFF7E3FC88BBBF
:104A100003E084F815A00220C5E7207D00060CD530
:104A2000216A0198081A0099884206D208EB0030E2
:104A30004FF48052594600F035FC009806032CE0F4
:104A4000226A0198824218D0207D00060AD5029879
:104A5000012359464078FFF7D7FC58B9207D00F074
:104A60007F0020750298012359464078019AFFF78C
:104A7000B1FC10B16775012095E701982062208B89
:104A8000C0F30B00C0F58056AE4200D92E46011986
:104A900032464046303100F005FCA069B044304455
:104AA000A061D9F800008119AD1BC9F80010002DD4
:104AB0007FF47BAF002076E738B50C4605466946A3
:104AC00000F09DFD002813D1014628468CB1FFF768
:104AD000BBFB042801D000280AD12146284600F05B
:104AE00069FA00212846FFF735FB042800D1002091
:104AF00038BDFFF70CFC38BDF8B50446694600F038
:104B00007EFD00280ED1217D4A060BD508060ED564
:104B10000098226A0123407804F13001FFF774FC09
:104B200008B10120F8BD207D00F07F00207500F065
:104B30003FFA0646616A009800F0C5FB0028F1D1F3
:104B4000A56A2946E87A40F02000E872A268206849
:104B500000F0C8FC05F11C00E16800F0D7FC31460C
:104B600005F1160000F0D2FC002105F1120000F062
:104B7000D5FC00980121C17000F0D4FC217D01F02A
:104B8000BF012175F8BD00002DE9FF4100279046C7
:104B90000E460F6000F03FFA050003D50B2004B06D
:104BA000BDE8F0818A4850F825409CB134602078F7
:104BB00008F0FE0620B16078FFF71AFCC1070BD0A1
:104BC0002770E8B2B8466070FFF7E2FBC10708D073
:104BD0000320E4E70C20E2E70EB1400704D40020F4
:104BE000DDE71EB1400701D50A20D8E7002631468F
:104BF0002046FFF71FF9022822D100254FEA0D07B2
:104C000004EB051090F8F21100F5F77019B10830B7
:104C100000F073FA00E0002047F825006D1C042D19
:104C2000EED3002557F8256036B131462046FFF710
:104C300001F9022801D203E003206D1C042DF1D3F9
:104C4000042809D002286DD204F13B0000F060FA7C
:104C5000B0F5805F66D101E00120A0E704F14600D5
:104C600000F056FA18B904F1540000F046FAA061B9
:104C700094F84050A570012D01D0022D52D145432A
:104C800094F83D006081E8B3411E08424AD104F126
:104C9000410000F03DFA2081400643D104F1430079
:104CA00000F036FA070004D104F1500000F025FAB4
:104CB000074604F13E0000F02BFA010032D02389B0
:104CC000481900EBD31297422CD3B81A6789B0FB6E
:104CD000F7F0B8B103274FF6F57C604500D80227FE
:104CE00040F6F57C604500D80127801C3244A26262
:104CF00031446061C4E90761032F15D013B1294421
:104D0000616200E00EE0022F1FD000F0010100EB15
:104D1000400001EB500000BFA16900F6FF70B1EB4D
:104D2000103F14D20D203AE704F15A0000F0F0F9D8
:104D30000028F7D120890028F4D104F15C0000F0AC
:104D4000DCF9606260698000E6E74000E4E74FF06C
:104D5000FF302061E06080202071032F2CD104F10E
:104D6000600000F0D5F9012826D1711C204600F022
:104D7000AAFA08BB84F8048004F22E2000F0C8F9D7
:104D8000A0F52A41553917D104F1300000F0B5F9EA
:104D90001049884210D104F5057000F0AEF90E49B3
:104DA000884209D104F5067000F0A7F9206104F5E6
:104DB000077000F0A2F9E06005492770091F088814
:104DC000401C0880E0802046FFF79AF807E70000C3
:104DD00030000020525261417272416173B5044645
:104DE0000568019801E0401C019001782F29FAD054
:104DF0005C29F8D00021A16001980078202806D213
:104E0000802084F82F002046FFF781FA7CBD01A99D
:104E10002046FFF7F5F80028F8D12046FFF768F99B
:104E200094F82F1028B10428F0D14907EED40520BA
:104E30007CBD4907FCD4A079C006F8D5A08AC0F390
:104E40000B0041192846303100F044F9A060DEE73C
:104E500013B56423012269460248FCF72FFA009833
:104E60001CBD00008830002010B5002821D0114B57
:104E70000022001F196803E0814203D80A464968EE
:104E80000029F9D152B11368841A9C4204D10068F8
:104E900018441060104602E0506000E0186039B11C
:104EA00002680B1A934203D10B681A4402604968E6
:104EB000416010BD5800002010B501220849094882
:104EC000FFF7DEFB064C083C207020B1BDE8104027
:104ED00005A0FEF7FBBE064800F0BEFA207010BD2C
:104EE00008000020780000206572726F72000000D8
:104EF0009D2C00202DE9F04104680D4602290CD3B9
:104F00006069A84209D920784FF0FF36012808D0FF
:104F1000370D02282BD0032839D001263046BDE8B2
:104F2000F081206A05EB550700EB1731204600F0B1
:104F3000CAF90028F2D1C7F30B0020447F1C90F877
:104F40003080206A00EB1731204600F0BCF90028C1
:104F5000E4D1C7F30B00204490F8301048EA012058
:104F6000E90701D00609D9E7C0F30B06D6E7206AA6
:104F700000EBD521204600F0A6F90028CED107EAA3
:104F800045002044303000F0C3F80646C6E7206AEA
:104F900000EB9521204600F096F90028BED107EAE3
:104FA00085002044303000F0A8F820F07046B5E7C6
:104FB000002070472DE9F041002305464B72C0697F
:104FC0000C46002825D000210A462E26286A805C3F
:104FD000521C20280AD0052800D1E520092A02D138
:104FE0006718491C7E726718491C78720B2AEDD32A
:104FF00060184372286AC07A2072286A1C3000F058
:105000007CF82060286A163000F077F8E080000C09
:10501000A080BDE8F08110B504464FF0FF30226853
:10502000002A13D0114600E0491C0B78212B0ED327
:105030003A2BF9D112F8013B303B0A2B06D28A42B7
:1050400004D1002B02D1491C1846216010BD00205C
:1050500010BD0000F0B502461D4BD2F800500020F4
:1050600003EB00142668AE4207D166689768BE421B
:1050700003D1A4685669B44202D0401C0228EFD381
:10508000022814D1002002E0401C022804D203EBC5
:1050900000142468002CF7D102280ED003EB001472
:1050A0002560956865605269A2600022A28100298E
:1050B00003EB0011898902D019B10020F0BD491C11
:1050C00001E04FF4807103EB0012401C9181F0BDB0
:1050D0005845002070B506460D4601F11A0000F053
:1050E00017F804463078032805D105F1140000F0C4
:1050F0000FF844EA0044204670BDC178827842EA45
:1051000001214278007842EA012140EA01207047FB
:105110004178007840EA012070470000FBF73CFC32
:10512000FCF770FCFCF704FC3648354900250160AB
:105130004FF41651C0E901150C21C560C0E90451B6
:105140008561C561FBF7F2FFFCF7E4FBFCF728FC87
:1051500001222D492B48FCF757F82B4CB4F10104E0
:10516000FCF73EFCA07801280ED128A0FEF7AEFD8A
:10517000FFF7A2FE264927A0FEF7A8FD0D2126482D
:10518000FBF768F86560A570E0780128E8D11E4952
:105190000122C91D2148FFF773FA207020B120A019
:1051A000FEF794FDE570DBE701221B491E48FFF77F
:1051B00093FA20700028F5D11CA0FEF787FD00218E
:1051C0001948FFF754F9104B134940F6B8360B3322
:1051D00032460D311448FFF7C6FB0F490DA00D31C3
:1051E000FEF774FD1048FFF71DF90D210A48FBF783
:1051F00031F8094831460D30FBF72CF86560D1E7EE
:105200000044004088300020010000206F6B000047
:10521000912E002025730000D82000207800002067
:105220006572726F72000000A810002077656C6CC8
:10523000646F6E6500000000F0B50B30154D20F076
:1052400007010024144A0FE003688B420BD38B4202
:1052500005D95E1A43184768C3E9006700E0436850
:10526000136002C004E0021D10680028ECD1204643
:10527000002802D1286808B10020F0BD064A07487E
:105280001060074A121A22F00702C0E90024012028
:105290002860D7E75C000020580000208C450020E3
:1052A00088650020002A05D011F8013B00F8013B79
:1052B000521EF9D1704700005FFA81F100F8011B1E
:1052C000521EFBD1704770B50446C06A0D460026D9
:1052D000A8420FD0204600F069F906000AD1607894
:1052E00001232A4604F13001FFF774F808B1751E56
:1052F0000126E562304670BD2DE9F04702261746CB
:105300000D460446022969D36069A84266D920780F
:105310004FF00109012806D040F6FF78022836D068
:1053200003285BD143E0216A05EB550801EB1831F6
:105330002046FFF7C8FF060050D1C8F30B002044F9
:10534000303008F10108E90704D00178FAB262F3BD
:105350001F1100E03946017084F80390216A20464D
:1053600001EB1831FFF7AFFF060037D1C8F30B0090
:1053700020443030E90702D0C7F3071105E0017877
:10538000C7F3032201F0F0011143017024E0206A09
:1053900000EBD5212046FFF796FF06001ED108EA54
:1053A00045002044B9B2303000F0B8F814E0206A6B
:1053B00000EB95212046FFF786FF06000ED108EA94
:1053C0008500204430300546FFF797FE67F31B0049
:1053D0000146284600F09AF884F803903046BDE86C
:1053E000F0872DE9F041056813460E46074602296D
:1053F0002DD36869B0422AD93BB14FF0FF3219462C
:105400002846FFF779FF00281FD131463846FFF7BD
:1054100071FD040018D0012C19D0601C19D0002295
:1054200031462846FFF768FF00280ED1D5E9041061
:10543000821E914205D2491C2961297941F001015E
:1054400029712646B042E0D80020BDE8F081022054
:10545000FBE70120F9E7000030B58DB00146684652
:10546000FFF740FA050009D11B4C1B496846FFF7BE
:1054700023FB050005D06846FEF7E8FF0DB028467F
:1054800030BD00202118497A2E2903D0401C0D2858
:10549000F8DBEAE72044807A5428E6D1617A207B61
:1054A00001EB4102C2EBC11100EBC100A17A642201
:1054B00011FB02F1E27A02EB820201EB42010844A5
:1054C0000649054A01EBC000093205A1FEF70EFCB2
:1054D0000248FAF7CAFEC8E760000020912E0020BB
:1054E0002573000070B50C460646154691B204F1CE
:1054F0001A0000F013F83078032806D1290C04F1C3
:105500001400BDE8704000F009B870BD0170090AD0
:105510004170090A8170090AC17070470170090A57
:105520004170704770B5044600F040F8050036D170
:10553000207803282CD12079012829D1020304F1F5
:10554000300000210646FFF7B7FE4AF6552104F267
:105550002E20FFF7E3FF13493046FFF7D7FF12492C
:1055600004F50570FFF7D2FF04F506702169FFF717
:10557000CDFF04F50770E168FFF7C8FFE26901237A
:10558000521CE26260783146FEF73EFF0020207137
:10559000002260781146FEF70FFF00B10125284672
:1055A00070BD000052526141727241612DE9F041BB
:1055B0000446C0780027F8B1E56A04F1300160784C
:1055C00001232A468846FEF71FFF08B1012713E092
:1055D0000020E070206AA169281A88420CD2A678BF
:1055E00008E0A0690123054460782A464146FEF799
:1055F0000BFF761E022EF4D23846BDE8F08170B55E
:105600000E4604004FF009050CD0206850B1017817
:1056100041B1A188C288914204D14078FEF7E8FEEA
:10562000C00703D000203060284670BD00252068E8
:10563000F9E7000005350008B13500086D350008B0
:10564000C93500080935000800000000000000000E
:105650000102030406070809000000000102030418
:1056600043554541414141434545454949494141EA
:105670004592924F4F4F5555594F554F9C4F9E9FB6
:1056800041494F55A5A5A6A7A8A9AAABACADAEAFF9
:10569000B0B1B2B3B4414141B8B9BABBBCBDBEBFF1
:1056A000C0C1C2C3C4C54141C8C9CACBCCCDCECF8D
:1056B000D1D145454549494949D9DADBDCDD49DFE6
:1056C0004FE14F4F4F4FE6E8E85555555959EEEF2A
:1056D000F0F1F2F3F4F5F6F7F8F9FAFBFCFDFEFF52
:1056E0000100040010004000000100020000010061
:1056F0000200040008001000200000004D53430089
:10570000205700080000002060000000343D000821
:10571000805700086000002028A50000443D0008D4
:105720000000000000000000000000000000000079
:105730000000000000000000000000000100000068
:1057400010000000000000000024F4000000000031
:1057500000000000FC56000808000000B728000800
:1057600065280008BD2700081F2A0008E930000846
:105770000000000000000000000000000000000029
:040000050800018965
:00000001FF
